{
  "_format": "hh-sol-artifact-1",
  "contractName": "Patentic",
  "sourceName": "contracts/Patentic.sol",
  "abi": [
    {
      "inputs": [],
      "stateMutability": "nonpayable",
      "type": "constructor"
    },
    {
      "anonymous": false,
      "inputs": [
        {
          "indexed": true,
          "internalType": "address",
          "name": "from",
          "type": "address"
        },
        {
          "indexed": true,
          "internalType": "address",
          "name": "to",
          "type": "address"
        },
        {
          "indexed": false,
          "internalType": "uint256",
          "name": "timestamp",
          "type": "uint256"
        },
        {
          "indexed": false,
          "internalType": "string",
          "name": "text",
          "type": "string"
        },
        {
          "indexed": false,
          "internalType": "string",
          "name": "patent",
          "type": "string"
        }
      ],
      "name": "NewMessage",
      "type": "event"
    },
    {
      "anonymous": false,
      "inputs": [
        {
          "indexed": true,
          "internalType": "address",
          "name": "from",
          "type": "address"
        },
        {
          "indexed": false,
          "internalType": "uint256",
          "name": "timestamp",
          "type": "uint256"
        },
        {
          "components": [
            {
              "internalType": "string",
              "name": "patentName",
              "type": "string"
            },
            {
              "internalType": "string",
              "name": "patentText",
              "type": "string"
            },
            {
              "internalType": "string",
              "name": "patentType",
              "type": "string"
            }
          ],
          "indexed": false,
          "internalType": "struct Patentic.PatentContent",
          "name": "PatentData",
          "type": "tuple"
        }
      ],
      "name": "NewPatent",
      "type": "event"
    },
    {
      "inputs": [
        {
          "internalType": "address",
          "name": "_to",
          "type": "address"
        },
        {
          "internalType": "string",
          "name": "_text",
          "type": "string"
        },
        {
          "internalType": "string",
          "name": "_patent",
          "type": "string"
        }
      ],
      "name": "addMessage",
      "outputs": [],
      "stateMutability": "nonpayable",
      "type": "function"
    },
    {
      "inputs": [
        {
          "internalType": "string",
          "name": "_patentName",
          "type": "string"
        },
        {
          "internalType": "string",
          "name": "_patentText",
          "type": "string"
        },
        {
          "internalType": "string",
          "name": "_patentType",
          "type": "string"
        }
      ],
      "name": "createPatent",
      "outputs": [],
      "stateMutability": "nonpayable",
      "type": "function"
    },
    {
      "inputs": [],
      "name": "getAllPatents",
      "outputs": [
        {
          "components": [
            {
              "internalType": "address",
              "name": "patentOwner",
              "type": "address"
            },
            {
              "components": [
                {
                  "internalType": "string",
                  "name": "patentName",
                  "type": "string"
                },
                {
                  "internalType": "string",
                  "name": "patentText",
                  "type": "string"
                },
                {
                  "internalType": "string",
                  "name": "patentType",
                  "type": "string"
                }
              ],
              "internalType": "struct Patentic.PatentContent",
              "name": "patentData",
              "type": "tuple"
            },
            {
              "internalType": "uint256",
              "name": "timestamp",
              "type": "uint256"
            }
          ],
          "internalType": "struct Patentic.Patent[]",
          "name": "",
          "type": "tuple[]"
        }
      ],
      "stateMutability": "view",
      "type": "function"
    },
    {
      "inputs": [],
      "name": "getMessagesOnAddress",
      "outputs": [
        {
          "components": [
            {
              "internalType": "address",
              "name": "to",
              "type": "address"
            },
            {
              "internalType": "address",
              "name": "from",
              "type": "address"
            },
            {
              "internalType": "uint256",
              "name": "timestamp",
              "type": "uint256"
            },
            {
              "internalType": "string",
              "name": "text",
              "type": "string"
            },
            {
              "internalType": "string",
              "name": "patent",
              "type": "string"
            }
          ],
          "internalType": "struct Patentic.Message[]",
          "name": "",
          "type": "tuple[]"
        }
      ],
      "stateMutability": "view",
      "type": "function"
    },
    {
      "inputs": [],
      "name": "getPatentsOnAddress",
      "outputs": [
        {
          "components": [
            {
              "internalType": "address",
              "name": "patentOwner",
              "type": "address"
            },
            {
              "components": [
                {
                  "internalType": "string",
                  "name": "patentName",
                  "type": "string"
                },
                {
                  "internalType": "string",
                  "name": "patentText",
                  "type": "string"
                },
                {
                  "internalType": "string",
                  "name": "patentType",
                  "type": "string"
                }
              ],
              "internalType": "struct Patentic.PatentContent",
              "name": "patentData",
              "type": "tuple"
            },
            {
              "internalType": "uint256",
              "name": "timestamp",
              "type": "uint256"
            }
          ],
          "internalType": "struct Patentic.Patent[]",
          "name": "",
          "type": "tuple[]"
        }
      ],
      "stateMutability": "view",
      "type": "function"
    },
    {
      "inputs": [],
      "name": "getTotalMessages",
      "outputs": [
        {
          "internalType": "uint256",
          "name": "",
          "type": "uint256"
        }
      ],
      "stateMutability": "view",
      "type": "function"
    },
    {
      "inputs": [],
      "name": "getTotalPatents",
      "outputs": [
        {
          "internalType": "uint256",
          "name": "",
          "type": "uint256"
        }
      ],
      "stateMutability": "view",
      "type": "function"
    }
  ],
  "bytecode": "0x60806040523480156200001157600080fd5b506200005d6040518060400160405280601981526020017f57652068617665206265656e20636f6e737472756374656421000000000000008152506200006360201b62000fe81760201c565b620001f7565b62000103816040516024016200007a919062000170565b6040516020818303038152906040527f41304fac000000000000000000000000000000000000000000000000000000007bffffffffffffffffffffffffffffffffffffffffffffffffffffffff19166020820180517bffffffffffffffffffffffffffffffffffffffffffffffffffffffff83818316178352505050506200010660201b60201c565b50565b60008151905060006a636f6e736f6c652e6c6f679050602083016000808483855afa5050505050565b60006200013c8262000194565b6200014881856200019f565b93506200015a818560208601620001b0565b6200016581620001e6565b840191505092915050565b600060208201905081810360008301526200018c81846200012f565b905092915050565b600081519050919050565b600082825260208201905092915050565b60005b83811015620001d0578082015181840152602081019050620001b3565b83811115620001e0576000848401525b50505050565b6000601f19601f8301169050919050565b611a2780620002076000396000f3fe608060405234801561001057600080fd5b506004361061007d5760003560e01c806350674e651161005b57806350674e65146100da578063548394df146100f8578063c3685e8914610116578063f7e9ad6a146101325761007d565b8063147e910814610082578063356cb69a146100a05780634b4b5789146100be575b600080fd5b61008a610150565b6040516100979190611680565b60405180910390f35b6100a861015a565b6040516100b5919061163c565b60405180910390f35b6100d860048036038101906100d39190611249565b610420565b005b6100e261073b565b6040516100ef9190611680565b60405180910390f35b610100610744565b60405161010d919061161a565b60405180910390f35b610130600480360381019061012b91906111ca565b6109ba565b005b61013a610d5f565b604051610147919061163c565b60405180910390f35b6000600154905090565b6060600260003373ffffffffffffffffffffffffffffffffffffffff1673ffffffffffffffffffffffffffffffffffffffff168152602001908152602001600020805480602002602001604051908101604052809291908181526020016000905b8282101561041757838290600052602060002090600502016040518060600160405290816000820160009054906101000a900473ffffffffffffffffffffffffffffffffffffffff1673ffffffffffffffffffffffffffffffffffffffff1673ffffffffffffffffffffffffffffffffffffffff16815260200160018201604051806060016040529081600082018054610254906118d9565b80601f0160208091040260200160405190810160405280929190818152602001828054610280906118d9565b80156102cd5780601f106102a2576101008083540402835291602001916102cd565b820191906000526020600020905b8154815290600101906020018083116102b057829003601f168201915b505050505081526020016001820180546102e6906118d9565b80601f0160208091040260200160405190810160405280929190818152602001828054610312906118d9565b801561035f5780601f106103345761010080835404028352916020019161035f565b820191906000526020600020905b81548152906001019060200180831161034257829003601f168201915b50505050508152602001600282018054610378906118d9565b80601f01602080910402602001604051908101604052809291908181526020018280546103a4906118d9565b80156103f15780601f106103c6576101008083540402835291602001916103f1565b820191906000526020600020905b8154815290600101906020018083116103d457829003601f168201915b5050505050815250508152602001600482015481525050815260200190600101906101bb565b50505050905090565b60016000808282546104329190611805565b92505081905550600260003373ffffffffffffffffffffffffffffffffffffffff1673ffffffffffffffffffffffffffffffffffffffff16815260200190815260200160002060405180606001604052803373ffffffffffffffffffffffffffffffffffffffff168152602001604051806060016040528087815260200186815260200185815250815260200142815250908060018154018082558091505060019003906000526020600020906005020160009091909190915060008201518160000160006101000a81548173ffffffffffffffffffffffffffffffffffffffff021916908373ffffffffffffffffffffffffffffffffffffffff16021790555060208201518160010160008201518160000190805190602001906105589291906110aa565b5060208201518160010190805190602001906105759291906110aa565b5060408201518160020190805190602001906105929291906110aa565b505050604082015181600401555050600460405180606001604052803373ffffffffffffffffffffffffffffffffffffffff168152602001604051806060016040528087815260200186815260200185815250815260200142815250908060018154018082558091505060019003906000526020600020906005020160009091909190915060008201518160000160006101000a81548173ffffffffffffffffffffffffffffffffffffffff021916908373ffffffffffffffffffffffffffffffffffffffff16021790555060208201518160010160008201518160000190805190602001906106839291906110aa565b5060208201518160010190805190602001906106a09291906110aa565b5060408201518160020190805190602001906106bd9291906110aa565b5050506040820151816004015550503373ffffffffffffffffffffffffffffffffffffffff167f12427b4581241bcf426df3580a01df070ff0e067b729d3c02583360bb959042e4260405180606001604052808781526020018681526020018581525060405161072e9291906116e0565b60405180910390a2505050565b60008054905090565b6060600360003373ffffffffffffffffffffffffffffffffffffffff1673ffffffffffffffffffffffffffffffffffffffff168152602001908152602001600020805480602002602001604051908101604052809291908181526020016000905b828210156109b157838290600052602060002090600502016040518060a00160405290816000820160009054906101000a900473ffffffffffffffffffffffffffffffffffffffff1673ffffffffffffffffffffffffffffffffffffffff1673ffffffffffffffffffffffffffffffffffffffff1681526020016001820160009054906101000a900473ffffffffffffffffffffffffffffffffffffffff1673ffffffffffffffffffffffffffffffffffffffff1673ffffffffffffffffffffffffffffffffffffffff1681526020016002820154815260200160038201805461088e906118d9565b80601f01602080910402602001604051908101604052809291908181526020018280546108ba906118d9565b80156109075780601f106108dc57610100808354040283529160200191610907565b820191906000526020600020905b8154815290600101906020018083116108ea57829003601f168201915b50505050508152602001600482018054610920906118d9565b80601f016020809104026020016040519081016040528092919081815260200182805461094c906118d9565b80156109995780601f1061096e57610100808354040283529160200191610999565b820191906000526020600020905b81548152906001019060200180831161097c57829003601f168201915b505050505081525050815260200190600101906107a5565b50505050905090565b600360003373ffffffffffffffffffffffffffffffffffffffff1673ffffffffffffffffffffffffffffffffffffffff1681526020019081526020016000206040518060a001604052808573ffffffffffffffffffffffffffffffffffffffff1681526020013373ffffffffffffffffffffffffffffffffffffffff16815260200142815260200184815260200183815250908060018154018082558091505060019003906000526020600020906005020160009091909190915060008201518160000160006101000a81548173ffffffffffffffffffffffffffffffffffffffff021916908373ffffffffffffffffffffffffffffffffffffffff16021790555060208201518160010160006101000a81548173ffffffffffffffffffffffffffffffffffffffff021916908373ffffffffffffffffffffffffffffffffffffffff160217905550604082015181600201556060820151816003019080519060200190610b299291906110aa565b506080820151816004019080519060200190610b469291906110aa565b505050600360008473ffffffffffffffffffffffffffffffffffffffff1673ffffffffffffffffffffffffffffffffffffffff1681526020019081526020016000206040518060a001604052808573ffffffffffffffffffffffffffffffffffffffff1681526020013373ffffffffffffffffffffffffffffffffffffffff16815260200142815260200184815260200183815250908060018154018082558091505060019003906000526020600020906005020160009091909190915060008201518160000160006101000a81548173ffffffffffffffffffffffffffffffffffffffff021916908373ffffffffffffffffffffffffffffffffffffffff16021790555060208201518160010160006101000a81548173ffffffffffffffffffffffffffffffffffffffff021916908373ffffffffffffffffffffffffffffffffffffffff160217905550604082015181600201556060820151816003019080519060200190610cb89291906110aa565b506080820151816004019080519060200190610cd59291906110aa565b5050506001806000828254610cea9190611805565b925050819055508273ffffffffffffffffffffffffffffffffffffffff163373ffffffffffffffffffffffffffffffffffffffff167f850645ab736fdd7bf7a143b0467585acbb56d8ce9429761f5a0b3e8926371281428585604051610d529392919061169b565b60405180910390a3505050565b60606004805480602002602001604051908101604052809291908181526020016000905b82821015610fdf57838290600052602060002090600502016040518060600160405290816000820160009054906101000a900473ffffffffffffffffffffffffffffffffffffffff1673ffffffffffffffffffffffffffffffffffffffff1673ffffffffffffffffffffffffffffffffffffffff16815260200160018201604051806060016040529081600082018054610e1c906118d9565b80601f0160208091040260200160405190810160405280929190818152602001828054610e48906118d9565b8015610e955780601f10610e6a57610100808354040283529160200191610e95565b820191906000526020600020905b815481529060010190602001808311610e7857829003601f168201915b50505050508152602001600182018054610eae906118d9565b80601f0160208091040260200160405190810160405280929190818152602001828054610eda906118d9565b8015610f275780601f10610efc57610100808354040283529160200191610f27565b820191906000526020600020905b815481529060010190602001808311610f0a57829003601f168201915b50505050508152602001600282018054610f40906118d9565b80601f0160208091040260200160405190810160405280929190818152602001828054610f6c906118d9565b8015610fb95780601f10610f8e57610100808354040283529160200191610fb9565b820191906000526020600020905b815481529060010190602001808311610f9c57829003601f168201915b505050505081525050815260200160048201548152505081526020019060010190610d83565b50505050905090565b61107e81604051602401610ffc919061165e565b6040516020818303038152906040527f41304fac000000000000000000000000000000000000000000000000000000007bffffffffffffffffffffffffffffffffffffffffffffffffffffffff19166020820180517bffffffffffffffffffffffffffffffffffffffffffffffffffffffff8381831617835250505050611081565b50565b60008151905060006a636f6e736f6c652e6c6f679050602083016000808483855afa5050505050565b8280546110b6906118d9565b90600052602060002090601f0160209004810192826110d8576000855561111f565b82601f106110f157805160ff191683800117855561111f565b8280016001018555821561111f579182015b8281111561111e578251825591602001919060010190611103565b5b50905061112c9190611130565b5090565b5b80821115611149576000816000905550600101611131565b5090565b600061116061115b84611735565b611710565b90508281526020810184848401111561117857600080fd5b611183848285611897565b509392505050565b60008135905061119a816119da565b92915050565b600082601f8301126111b157600080fd5b81356111c184826020860161114d565b91505092915050565b6000806000606084860312156111df57600080fd5b60006111ed8682870161118b565b935050602084013567ffffffffffffffff81111561120a57600080fd5b611216868287016111a0565b925050604084013567ffffffffffffffff81111561123357600080fd5b61123f868287016111a0565b9150509250925092565b60008060006060848603121561125e57600080fd5b600084013567ffffffffffffffff81111561127857600080fd5b611284868287016111a0565b935050602084013567ffffffffffffffff8111156112a157600080fd5b6112ad868287016111a0565b925050604084013567ffffffffffffffff8111156112ca57600080fd5b6112d6868287016111a0565b9150509250925092565b60006112ec8383611473565b905092915050565b600061130083836115ac565b905092915050565b6113118161185b565b82525050565b600061132282611786565b61132c81856117c1565b93508360208202850161133e85611766565b8060005b8581101561137a578484038952815161135b85826112e0565b9450611366836117a7565b925060208a01995050600181019050611342565b50829750879550505050505092915050565b600061139782611791565b6113a181856117d2565b9350836020820285016113b385611776565b8060005b858110156113ef57848403895281516113d085826112f4565b94506113db836117b4565b925060208a019950506001810190506113b7565b50829750879550505050505092915050565b600061140c8261179c565b61141681856117e3565b93506114268185602086016118a6565b61142f816119c9565b840191505092915050565b60006114458261179c565b61144f81856117f4565b935061145f8185602086016118a6565b611468816119c9565b840191505092915050565b600060a08301600083015161148b6000860182611308565b50602083015161149e6020860182611308565b5060408301516114b160408601826115fc565b50606083015184820360608601526114c98282611401565b915050608083015184820360808601526114e38282611401565b9150508091505092915050565b6000606083016000830151848203600086015261150d8282611401565b915050602083015184820360208601526115278282611401565b915050604083015184820360408601526115418282611401565b9150508091505092915050565b6000606083016000830151848203600086015261156b8282611401565b915050602083015184820360208601526115858282611401565b9150506040830151848203604086015261159f8282611401565b9150508091505092915050565b60006060830160008301516115c46000860182611308565b50602083015184820360208601526115dc82826114f0565b91505060408301516115f160408601826115fc565b508091505092915050565b6116058161188d565b82525050565b6116148161188d565b82525050565b600060208201905081810360008301526116348184611317565b905092915050565b60006020820190508181036000830152611656818461138c565b905092915050565b60006020820190508181036000830152611678818461143a565b905092915050565b6000602082019050611695600083018461160b565b92915050565b60006060820190506116b0600083018661160b565b81810360208301526116c2818561143a565b905081810360408301526116d6818461143a565b9050949350505050565b60006040820190506116f5600083018561160b565b8181036020830152611707818461154e565b90509392505050565b600061171a61172b565b9050611726828261190b565b919050565b6000604051905090565b600067ffffffffffffffff8211156117505761174f61199a565b5b611759826119c9565b9050602081019050919050565b6000819050602082019050919050565b6000819050602082019050919050565b600081519050919050565b600081519050919050565b600081519050919050565b6000602082019050919050565b6000602082019050919050565b600082825260208201905092915050565b600082825260208201905092915050565b600082825260208201905092915050565b600082825260208201905092915050565b60006118108261188d565b915061181b8361188d565b9250827fffffffffffffffffffffffffffffffffffffffffffffffffffffffffffffffff038211156118505761184f61193c565b5b828201905092915050565b60006118668261186d565b9050919050565b600073ffffffffffffffffffffffffffffffffffffffff82169050919050565b6000819050919050565b82818337600083830152505050565b60005b838110156118c45780820151818401526020810190506118a9565b838111156118d3576000848401525b50505050565b600060028204905060018216806118f157607f821691505b602082108114156119055761190461196b565b5b50919050565b611914826119c9565b810181811067ffffffffffffffff821117156119335761193261199a565b5b80604052505050565b7f4e487b7100000000000000000000000000000000000000000000000000000000600052601160045260246000fd5b7f4e487b7100000000000000000000000000000000000000000000000000000000600052602260045260246000fd5b7f4e487b7100000000000000000000000000000000000000000000000000000000600052604160045260246000fd5b6000601f19601f8301169050919050565b6119e38161185b565b81146119ee57600080fd5b5056fea264697066735822122020a9cade8ee0c1668588e0cad1c13a63580d69bf1c1e9c7ef5f72d953ffbd62564736f6c63430008040033",
  "linkReferences": {},
  "deployedLinkReferences": {}
}