{
  "_format": "hh-sol-artifact-1",
  "contractName": "Patentic",
  "sourceName": "contracts/Patentic.sol",
  "abi": [
    {
      "inputs": [],
      "stateMutability": "nonpayable",
      "type": "constructor"
    },
    {
      "anonymous": false,
      "inputs": [
        {
          "indexed": true,
          "internalType": "address",
          "name": "from",
          "type": "address"
        },
        {
          "indexed": true,
          "internalType": "address",
          "name": "to",
          "type": "address"
        },
        {
          "indexed": false,
          "internalType": "uint256",
          "name": "timestamp",
          "type": "uint256"
        },
        {
          "indexed": false,
          "internalType": "string",
          "name": "text",
          "type": "string"
        },
        {
          "indexed": false,
          "internalType": "string",
          "name": "patent",
          "type": "string"
        }
      ],
      "name": "NewMessage",
      "type": "event"
    },
    {
      "anonymous": false,
      "inputs": [
        {
          "indexed": true,
          "internalType": "address",
          "name": "from",
          "type": "address"
        },
        {
          "indexed": false,
          "internalType": "uint256",
          "name": "timestamp",
          "type": "uint256"
        },
        {
          "components": [
            {
              "internalType": "string",
              "name": "patentName",
              "type": "string"
            },
            {
              "internalType": "string",
              "name": "patentText",
              "type": "string"
            },
            {
              "internalType": "string",
              "name": "patentType",
              "type": "string"
            }
          ],
          "indexed": false,
          "internalType": "struct Patentic.PatentContent",
          "name": "PatentData",
          "type": "tuple"
        }
      ],
      "name": "NewPatent",
      "type": "event"
    },
    {
      "inputs": [
        {
          "internalType": "address",
          "name": "_to",
          "type": "address"
        },
        {
          "internalType": "string",
          "name": "_text",
          "type": "string"
        },
        {
          "internalType": "string",
          "name": "_patent",
          "type": "string"
        }
      ],
      "name": "addMessage",
      "outputs": [],
      "stateMutability": "nonpayable",
      "type": "function"
    },
    {
      "inputs": [
        {
          "internalType": "string",
          "name": "_patentName",
          "type": "string"
        },
        {
          "internalType": "string",
          "name": "_patentText",
          "type": "string"
        },
        {
          "internalType": "string",
          "name": "_patentType",
          "type": "string"
        }
      ],
      "name": "createPatent",
      "outputs": [],
      "stateMutability": "nonpayable",
      "type": "function"
    },
    {
      "inputs": [],
      "name": "getAllPatents",
      "outputs": [
        {
          "components": [
            {
              "internalType": "address",
              "name": "patentOwner",
              "type": "address"
            },
            {
              "components": [
                {
                  "internalType": "string",
                  "name": "patentName",
                  "type": "string"
                },
                {
                  "internalType": "string",
                  "name": "patentText",
                  "type": "string"
                },
                {
                  "internalType": "string",
                  "name": "patentType",
                  "type": "string"
                }
              ],
              "internalType": "struct Patentic.PatentContent",
              "name": "patentData",
              "type": "tuple"
            },
            {
              "internalType": "uint256",
              "name": "timestamp",
              "type": "uint256"
            }
          ],
          "internalType": "struct Patentic.Patent[]",
          "name": "",
          "type": "tuple[]"
        }
      ],
      "stateMutability": "view",
      "type": "function"
    },
    {
      "inputs": [],
      "name": "getMessagesOnAddress",
      "outputs": [
        {
          "components": [
            {
              "internalType": "address",
              "name": "to",
              "type": "address"
            },
            {
              "internalType": "address",
              "name": "from",
              "type": "address"
            },
            {
              "internalType": "uint256",
              "name": "timestamp",
              "type": "uint256"
            },
            {
              "internalType": "string",
              "name": "text",
              "type": "string"
            },
            {
              "internalType": "string",
              "name": "patent",
              "type": "string"
            }
          ],
          "internalType": "struct Patentic.Message[]",
          "name": "",
          "type": "tuple[]"
        }
      ],
      "stateMutability": "view",
      "type": "function"
    },
    {
      "inputs": [],
      "name": "getPatentsOnAddress",
      "outputs": [
        {
          "components": [
            {
              "internalType": "address",
              "name": "patentOwner",
              "type": "address"
            },
            {
              "components": [
                {
                  "internalType": "string",
                  "name": "patentName",
                  "type": "string"
                },
                {
                  "internalType": "string",
                  "name": "patentText",
                  "type": "string"
                },
                {
                  "internalType": "string",
                  "name": "patentType",
                  "type": "string"
                }
              ],
              "internalType": "struct Patentic.PatentContent",
              "name": "patentData",
              "type": "tuple"
            },
            {
              "internalType": "uint256",
              "name": "timestamp",
              "type": "uint256"
            }
          ],
          "internalType": "struct Patentic.Patent[]",
          "name": "",
          "type": "tuple[]"
        }
      ],
      "stateMutability": "view",
      "type": "function"
    },
    {
      "inputs": [],
      "name": "getTotalMessages",
      "outputs": [
        {
          "internalType": "uint256",
          "name": "",
          "type": "uint256"
        }
      ],
      "stateMutability": "view",
      "type": "function"
    },
    {
      "inputs": [],
      "name": "getTotalPatents",
      "outputs": [
        {
          "internalType": "uint256",
          "name": "",
          "type": "uint256"
        }
      ],
      "stateMutability": "view",
      "type": "function"
    },
    {
      "inputs": [],
      "name": "owner",
      "outputs": [
        {
          "internalType": "address",
          "name": "",
          "type": "address"
        }
      ],
      "stateMutability": "view",
      "type": "function"
    }
  ],
  "bytecode": "0x608060405234801561001057600080fd5b5033600260006101000a81548173ffffffffffffffffffffffffffffffffffffffff021916908373ffffffffffffffffffffffffffffffffffffffff160217905550611ab8806100616000396000f3fe608060405234801561001057600080fd5b50600436106100885760003560e01c8063548394df1161005b578063548394df146101035780638da5cb5b14610121578063c3685e891461013f578063f7e9ad6a1461015b57610088565b8063147e91081461008d578063356cb69a146100ab5780634b4b5789146100c957806350674e65146100e5575b600080fd5b610095610179565b6040516100a291906116e8565b60405180910390f35b6100b3610183565b6040516100c091906116a6565b60405180910390f35b6100e360048036038101906100de9190611266565b610449565b005b6100ed610764565b6040516100fa91906116e8565b60405180910390f35b61010b61076d565b6040516101189190611684565b60405180910390f35b6101296109e3565b6040516101369190611669565b60405180910390f35b610159600480360381019061015491906111e7565b610a09565b005b610163610e3e565b60405161017091906116a6565b60405180910390f35b6000600154905090565b6060600360003373ffffffffffffffffffffffffffffffffffffffff1673ffffffffffffffffffffffffffffffffffffffff168152602001908152602001600020805480602002602001604051908101604052809291908181526020016000905b8282101561044057838290600052602060002090600502016040518060600160405290816000820160009054906101000a900473ffffffffffffffffffffffffffffffffffffffff1673ffffffffffffffffffffffffffffffffffffffff1673ffffffffffffffffffffffffffffffffffffffff1681526020016001820160405180606001604052908160008201805461027d90611941565b80601f01602080910402602001604051908101604052809291908181526020018280546102a990611941565b80156102f65780601f106102cb576101008083540402835291602001916102f6565b820191906000526020600020905b8154815290600101906020018083116102d957829003601f168201915b5050505050815260200160018201805461030f90611941565b80601f016020809104026020016040519081016040528092919081815260200182805461033b90611941565b80156103885780601f1061035d57610100808354040283529160200191610388565b820191906000526020600020905b81548152906001019060200180831161036b57829003601f168201915b505050505081526020016002820180546103a190611941565b80601f01602080910402602001604051908101604052809291908181526020018280546103cd90611941565b801561041a5780601f106103ef5761010080835404028352916020019161041a565b820191906000526020600020905b8154815290600101906020018083116103fd57829003601f168201915b5050505050815250508152602001600482015481525050815260200190600101906101e4565b50505050905090565b600160008082825461045b919061186d565b92505081905550600360003373ffffffffffffffffffffffffffffffffffffffff1673ffffffffffffffffffffffffffffffffffffffff16815260200190815260200160002060405180606001604052803373ffffffffffffffffffffffffffffffffffffffff168152602001604051806060016040528087815260200186815260200185815250815260200142815250908060018154018082558091505060019003906000526020600020906005020160009091909190915060008201518160000160006101000a81548173ffffffffffffffffffffffffffffffffffffffff021916908373ffffffffffffffffffffffffffffffffffffffff16021790555060208201518160010160008201518160000190805190602001906105819291906110c7565b50602082015181600101908051906020019061059e9291906110c7565b5060408201518160020190805190602001906105bb9291906110c7565b505050604082015181600401555050600560405180606001604052803373ffffffffffffffffffffffffffffffffffffffff168152602001604051806060016040528087815260200186815260200185815250815260200142815250908060018154018082558091505060019003906000526020600020906005020160009091909190915060008201518160000160006101000a81548173ffffffffffffffffffffffffffffffffffffffff021916908373ffffffffffffffffffffffffffffffffffffffff16021790555060208201518160010160008201518160000190805190602001906106ac9291906110c7565b5060208201518160010190805190602001906106c99291906110c7565b5060408201518160020190805190602001906106e69291906110c7565b5050506040820151816004015550503373ffffffffffffffffffffffffffffffffffffffff167f12427b4581241bcf426df3580a01df070ff0e067b729d3c02583360bb959042e42604051806060016040528087815260200186815260200185815250604051610757929190611748565b60405180910390a2505050565b60008054905090565b6060600460003373ffffffffffffffffffffffffffffffffffffffff1673ffffffffffffffffffffffffffffffffffffffff168152602001908152602001600020805480602002602001604051908101604052809291908181526020016000905b828210156109da57838290600052602060002090600502016040518060a00160405290816000820160009054906101000a900473ffffffffffffffffffffffffffffffffffffffff1673ffffffffffffffffffffffffffffffffffffffff1673ffffffffffffffffffffffffffffffffffffffff1681526020016001820160009054906101000a900473ffffffffffffffffffffffffffffffffffffffff1673ffffffffffffffffffffffffffffffffffffffff1673ffffffffffffffffffffffffffffffffffffffff168152602001600282015481526020016003820180546108b790611941565b80601f01602080910402602001604051908101604052809291908181526020018280546108e390611941565b80156109305780601f1061090557610100808354040283529160200191610930565b820191906000526020600020905b81548152906001019060200180831161091357829003601f168201915b5050505050815260200160048201805461094990611941565b80601f016020809104026020016040519081016040528092919081815260200182805461097590611941565b80156109c25780601f10610997576101008083540402835291602001916109c2565b820191906000526020600020905b8154815290600101906020018083116109a557829003601f168201915b505050505081525050815260200190600101906107ce565b50505050905090565b600260009054906101000a900473ffffffffffffffffffffffffffffffffffffffff1681565b600260009054906101000a900473ffffffffffffffffffffffffffffffffffffffff1673ffffffffffffffffffffffffffffffffffffffff168373ffffffffffffffffffffffffffffffffffffffff1614610a99576040517f08c379a0000000000000000000000000000000000000000000000000000000008152600401610a90906116c8565b60405180910390fd5b600460003373ffffffffffffffffffffffffffffffffffffffff1673ffffffffffffffffffffffffffffffffffffffff1681526020019081526020016000206040518060a001604052808573ffffffffffffffffffffffffffffffffffffffff1681526020013373ffffffffffffffffffffffffffffffffffffffff16815260200142815260200184815260200183815250908060018154018082558091505060019003906000526020600020906005020160009091909190915060008201518160000160006101000a81548173ffffffffffffffffffffffffffffffffffffffff021916908373ffffffffffffffffffffffffffffffffffffffff16021790555060208201518160010160006101000a81548173ffffffffffffffffffffffffffffffffffffffff021916908373ffffffffffffffffffffffffffffffffffffffff160217905550604082015181600201556060820151816003019080519060200190610c089291906110c7565b506080820151816004019080519060200190610c259291906110c7565b505050600460008473ffffffffffffffffffffffffffffffffffffffff1673ffffffffffffffffffffffffffffffffffffffff1681526020019081526020016000206040518060a001604052808573ffffffffffffffffffffffffffffffffffffffff1681526020013373ffffffffffffffffffffffffffffffffffffffff16815260200142815260200184815260200183815250908060018154018082558091505060019003906000526020600020906005020160009091909190915060008201518160000160006101000a81548173ffffffffffffffffffffffffffffffffffffffff021916908373ffffffffffffffffffffffffffffffffffffffff16021790555060208201518160010160006101000a81548173ffffffffffffffffffffffffffffffffffffffff021916908373ffffffffffffffffffffffffffffffffffffffff160217905550604082015181600201556060820151816003019080519060200190610d979291906110c7565b506080820151816004019080519060200190610db49291906110c7565b5050506001806000828254610dc9919061186d565b925050819055508273ffffffffffffffffffffffffffffffffffffffff163373ffffffffffffffffffffffffffffffffffffffff167f850645ab736fdd7bf7a143b0467585acbb56d8ce9429761f5a0b3e8926371281428585604051610e3193929190611703565b60405180910390a3505050565b60606005805480602002602001604051908101604052809291908181526020016000905b828210156110be57838290600052602060002090600502016040518060600160405290816000820160009054906101000a900473ffffffffffffffffffffffffffffffffffffffff1673ffffffffffffffffffffffffffffffffffffffff1673ffffffffffffffffffffffffffffffffffffffff16815260200160018201604051806060016040529081600082018054610efb90611941565b80601f0160208091040260200160405190810160405280929190818152602001828054610f2790611941565b8015610f745780601f10610f4957610100808354040283529160200191610f74565b820191906000526020600020905b815481529060010190602001808311610f5757829003601f168201915b50505050508152602001600182018054610f8d90611941565b80601f0160208091040260200160405190810160405280929190818152602001828054610fb990611941565b80156110065780601f10610fdb57610100808354040283529160200191611006565b820191906000526020600020905b815481529060010190602001808311610fe957829003601f168201915b5050505050815260200160028201805461101f90611941565b80601f016020809104026020016040519081016040528092919081815260200182805461104b90611941565b80156110985780601f1061106d57610100808354040283529160200191611098565b820191906000526020600020905b81548152906001019060200180831161107b57829003601f168201915b505050505081525050815260200160048201548152505081526020019060010190610e62565b50505050905090565b8280546110d390611941565b90600052602060002090601f0160209004810192826110f5576000855561113c565b82601f1061110e57805160ff191683800117855561113c565b8280016001018555821561113c579182015b8281111561113b578251825591602001919060010190611120565b5b509050611149919061114d565b5090565b5b8082111561116657600081600090555060010161114e565b5090565b600061117d6111788461179d565b611778565b90508281526020810184848401111561119557600080fd5b6111a08482856118ff565b509392505050565b6000813590506111b781611a6b565b92915050565b600082601f8301126111ce57600080fd5b81356111de84826020860161116a565b91505092915050565b6000806000606084860312156111fc57600080fd5b600061120a868287016111a8565b935050602084013567ffffffffffffffff81111561122757600080fd5b611233868287016111bd565b925050604084013567ffffffffffffffff81111561125057600080fd5b61125c868287016111bd565b9150509250925092565b60008060006060848603121561127b57600080fd5b600084013567ffffffffffffffff81111561129557600080fd5b6112a1868287016111bd565b935050602084013567ffffffffffffffff8111156112be57600080fd5b6112ca868287016111bd565b925050604084013567ffffffffffffffff8111156112e757600080fd5b6112f3868287016111bd565b9150509250925092565b600061130983836114c2565b905092915050565b600061131d83836115fb565b905092915050565b61132e816118c3565b82525050565b61133d816118c3565b82525050565b600061134e826117ee565b6113588185611829565b93508360208202850161136a856117ce565b8060005b858110156113a6578484038952815161138785826112fd565b94506113928361180f565b925060208a0199505060018101905061136e565b50829750879550505050505092915050565b60006113c3826117f9565b6113cd818561183a565b9350836020820285016113df856117de565b8060005b8581101561141b57848403895281516113fc8582611311565b94506114078361181c565b925060208a019950506001810190506113e3565b50829750879550505050505092915050565b600061143882611804565b611442818561184b565b935061145281856020860161190e565b61145b81611a31565b840191505092915050565b600061147182611804565b61147b818561185c565b935061148b81856020860161190e565b61149481611a31565b840191505092915050565b60006114ac601f8361185c565b91506114b782611a42565b602082019050919050565b600060a0830160008301516114da6000860182611325565b5060208301516114ed6020860182611325565b506040830151611500604086018261164b565b5060608301518482036060860152611518828261142d565b91505060808301518482036080860152611532828261142d565b9150508091505092915050565b6000606083016000830151848203600086015261155c828261142d565b91505060208301518482036020860152611576828261142d565b91505060408301518482036040860152611590828261142d565b9150508091505092915050565b600060608301600083015184820360008601526115ba828261142d565b915050602083015184820360208601526115d4828261142d565b915050604083015184820360408601526115ee828261142d565b9150508091505092915050565b60006060830160008301516116136000860182611325565b506020830151848203602086015261162b828261153f565b9150506040830151611640604086018261164b565b508091505092915050565b611654816118f5565b82525050565b611663816118f5565b82525050565b600060208201905061167e6000830184611334565b92915050565b6000602082019050818103600083015261169e8184611343565b905092915050565b600060208201905081810360008301526116c081846113b8565b905092915050565b600060208201905081810360008301526116e18161149f565b9050919050565b60006020820190506116fd600083018461165a565b92915050565b6000606082019050611718600083018661165a565b818103602083015261172a8185611466565b9050818103604083015261173e8184611466565b9050949350505050565b600060408201905061175d600083018561165a565b818103602083015261176f818461159d565b90509392505050565b6000611782611793565b905061178e8282611973565b919050565b6000604051905090565b600067ffffffffffffffff8211156117b8576117b7611a02565b5b6117c182611a31565b9050602081019050919050565b6000819050602082019050919050565b6000819050602082019050919050565b600081519050919050565b600081519050919050565b600081519050919050565b6000602082019050919050565b6000602082019050919050565b600082825260208201905092915050565b600082825260208201905092915050565b600082825260208201905092915050565b600082825260208201905092915050565b6000611878826118f5565b9150611883836118f5565b9250827fffffffffffffffffffffffffffffffffffffffffffffffffffffffffffffffff038211156118b8576118b76119a4565b5b828201905092915050565b60006118ce826118d5565b9050919050565b600073ffffffffffffffffffffffffffffffffffffffff82169050919050565b6000819050919050565b82818337600083830152505050565b60005b8381101561192c578082015181840152602081019050611911565b8381111561193b576000848401525b50505050565b6000600282049050600182168061195957607f821691505b6020821081141561196d5761196c6119d3565b5b50919050565b61197c82611a31565b810181811067ffffffffffffffff8211171561199b5761199a611a02565b5b80604052505050565b7f4e487b7100000000000000000000000000000000000000000000000000000000600052601160045260246000fd5b7f4e487b7100000000000000000000000000000000000000000000000000000000600052602260045260246000fd5b7f4e487b7100000000000000000000000000000000000000000000000000000000600052604160045260246000fd5b6000601f19601f8301169050919050565b7f43616e6e6f742073656e64206d65737361676520746f20796f757273656c6600600082015250565b611a74816118c3565b8114611a7f57600080fd5b5056fea264697066735822122045fc651ecf754f299b7f422c5513ed48d80aaee0ca3e324f5410c10f16dca8a864736f6c63430008040033",
  "linkReferences": {},
  "deployedLinkReferences": {}
}